{
    "contractName": "FlashLoan",
    "abi": [
        {
            "inputs": [],
            "stateMutability": "nonpayable",
            "type": "constructor"
        },
        {
            "anonymous": false,
            "inputs": [
                {
                    "indexed": false,
                    "internalType": "string",
                    "name": "message",
                    "type": "string"
                },
                {
                    "indexed": false,
                    "internalType": "uint256",
                    "name": "val",
                    "type": "uint256"
                }
            ],
            "name": "Log",
            "type": "event"
        },
        {
            "inputs": [
                {
                    "internalType": "address",
                    "name": "_sender",
                    "type": "address"
                },
                {
                    "internalType": "uint256",
                    "name": "amount0",
                    "type": "uint256"
                },
                {
                    "internalType": "uint256",
                    "name": "amount1",
                    "type": "uint256"
                },
                {
                    "internalType": "bytes",
                    "name": "_data",
                    "type": "bytes"
                }
            ],
            "name": "BiswapCall",
            "outputs": [],
            "stateMutability": "nonpayable",
            "type": "function"
        },
        {
            "inputs": [
                {
                    "internalType": "address[]",
                    "name": "_tokenBorrowPool",
                    "type": "address[]"
                },
                {
                    "internalType": "uint256",
                    "name": "_amount",
                    "type": "uint256"
                },
                {
                    "internalType": "uint256",
                    "name": "_from",
                    "type": "uint256"
                },
                {
                    "internalType": "address[]",
                    "name": "_path",
                    "type": "address[]"
                },
                {
                    "internalType": "uint256",
                    "name": "_amountOutminFrom",
                    "type": "uint256"
                },
                {
                    "internalType": "uint256",
                    "name": "_amountOutminTo",
                    "type": "uint256"
                }
            ],
            "name": "testFlashSwap",
            "outputs": [],
            "stateMutability": "nonpayable",
            "type": "function"
        },
        {
            "inputs": [
                {
                    "internalType": "address",
                    "name": "_tokenWithdraw",
                    "type": "address"
                }
            ],
            "name": "withdraw",
            "outputs": [],
            "stateMutability": "nonpayable",
            "type": "function"
        },
        {
            "stateMutability": "payable",
            "type": "receive"
        }
    ],
    "bytecode": "608060405234801561001057600080fd5b50600480546001600160a01b0319908116331790915560038054821673858e3312ed3a876947ea49d572a7c42de08af7ee179055600280548216733a6d8ca21d1cf76f653a67577fa0d27453350dd81790556001805482167310ed43c718714eb63d5aa57b78b54704e256024e1790556000805490911673ca143ce32fe78f1f7019d7d551a6402fc5350c731790556113d8806100ae6000396000f3fe6080604052600436106100385760003560e01c80635172adfd1461004457806351cff8d9146100665780635b3bc4fe146100865761003f565b3661003f57005b600080fd5b34801561005057600080fd5b5061006461005f366004610e2b565b6100a6565b005b34801561007257600080fd5b50610064610081366004610cdf565b6103f2565b34801561009257600080fd5b506100646100a1366004610d9a565b610505565b86516002146100d05760405162461bcd60e51b81526004016100c790611179565b60405180910390fd5b6000876000815181106100f357634e487b7160e01b600052603260045260246000fd5b6020026020010151905060008860018151811061012057634e487b7160e01b600052603260045260246000fd5b602090810291909101015160035460405163e6a4390560e01b81529192506000916001600160a01b039091169063e6a43905906101639086908690600401610fbf565b60206040518083038186803b15801561017b57600080fd5b505afa15801561018f573d6000803e3d6000fd5b505050506040513d601f19601f820116820180604052508101906101b39190610d02565b90506001600160a01b0381166101db5760405162461bcd60e51b81526004016100c790611069565b6000886001146101ff57733a6d8ca21d1cf76f653a67577fa0d27453350dd8610215565b7310ed43c718714eb63d5aa57b78b54704e256024e5b90506000826001600160a01b0316630dfe16816040518163ffffffff1660e01b815260040160206040518083038186803b15801561025257600080fd5b505afa158015610266573d6000803e3d6000fd5b505050506040513d601f19601f8201168201806040525081019061028a9190610d02565b90506000836001600160a01b031663d21220a76040518163ffffffff1660e01b815260040160206040518083038186803b1580156102c757600080fd5b505afa1580156102db573d6000803e3d6000fd5b505050506040513d601f19601f820116820180604052508101906102ff9190610d02565b90506000826001600160a01b0316876001600160a01b031614610323576000610325565b8c5b90506000826001600160a01b0316886001600160a01b03161461034957600061034b565b8d5b90506000888f878f8f8f8f60405160200161036c9796959493929190610ff2565b60408051601f198184030181529082905263022c0d9f60e01b825291506001600160a01b0388169063022c0d9f906103ae90869086903090879060040161119a565b600060405180830381600087803b1580156103c857600080fd5b505af11580156103dc573d6000803e3d6000fd5b5050505050505050505050505050505050505050565b6004546001600160a01b0316331461040957600080fd5b6040516370a0823160e01b815281906001600160a01b0382169063a9059cbb90339083906370a0823190610441903090600401610fab565b60206040518083038186803b15801561045957600080fd5b505afa15801561046d573d6000803e3d6000fd5b505050506040513d601f19601f820116820180604052508101906104919190610f93565b6040518363ffffffff1660e01b81526004016104ae929190610fd9565b602060405180830381600087803b1580156104c857600080fd5b505af11580156104dc573d6000803e3d6000fd5b505050506040513d601f19601f820116820180604052508101906105009190610f73565b505050565b6000336001600160a01b0316630dfe16816040518163ffffffff1660e01b815260040160206040518083038186803b15801561054057600080fd5b505afa158015610554573d6000803e3d6000fd5b505050506040513d601f19601f820116820180604052508101906105789190610d02565b90506000336001600160a01b031663d21220a76040518163ffffffff1660e01b815260040160206040518083038186803b1580156105b557600080fd5b505afa1580156105c9573d6000803e3d6000fd5b505050506040513d601f19601f820116820180604052508101906105ed9190610d02565b60035460405163e6a4390560e01b81529192506000916001600160a01b039091169063e6a43905906106259086908690600401610fbf565b60206040518083038186803b15801561063d57600080fd5b505afa158015610651573d6000803e3d6000fd5b505050506040513d601f19601f820116820180604052508101906106759190610d02565b9050336001600160a01b0382161461069f5760405162461bcd60e51b81526004016100c790611069565b6001600160a01b03881630146106c75760405162461bcd60e51b81526004016100c79061112f565b600080808080806106da8a8c018c610d1e565b95509550955095509550955060006103e78660016106f89190611308565b61070291906112e8565b61070d9060016112d0565b9050600061071b82886112d0565b90506000805160206113838339815191528760405161073a91906110de565b60405180910390a16000805160206113838339815191528f60405161075f9190611150565b60405180910390a16000805160206113838339815191528e6040516107849190611106565b60405180910390a1600080516020611383833981519152826040516107a99190611088565b60405180910390a1600080516020611383833981519152816040516107ce91906110ad565b60405180910390a17310ed43c718714eb63d5aa57b78b54704e256024e6001600160a01b0387161415610bd75760405163095ea7b360e01b81526001600160a01b0389169063095ea7b3906108299089908b90600401610fd9565b602060405180830381600087803b15801561084357600080fd5b505af1158015610857573d6000803e3d6000fd5b505050506040513d601f19601f8201168201806040525081019061087b9190610f73565b506001546040516338ed173960e01b81526000916001600160a01b0316906338ed1739906108b5908b9089908b903090429060040161120b565b600060405180830381600087803b1580156108cf57600080fd5b505af11580156108e3573d6000803e3d6000fd5b505050506040513d6000823e601f3d908101601f1916820160405261090b9190810190610ee3565b604080516002808252606082018352929350600092909160208301908036833701905050905086600188516109409190611327565b8151811061095e57634e487b7160e01b600052603260045260246000fd5b60200260200101518160008151811061098757634e487b7160e01b600052603260045260246000fd5b60200260200101906001600160a01b031690816001600160a01b031681525050866000815181106109c857634e487b7160e01b600052603260045260246000fd5b6020026020010151816001815181106109f157634e487b7160e01b600052603260045260246000fd5b60200260200101906001600160a01b031690816001600160a01b0316815250508660018851610a209190611327565b81518110610a3e57634e487b7160e01b600052603260045260246000fd5b60200260200101516001600160a01b031663095ea7b3733a6d8ca21d1cf76f653a67577fa0d27453350dd88460018651610a789190611327565b81518110610a9657634e487b7160e01b600052603260045260246000fd5b60200260200101516040518363ffffffff1660e01b8152600401610abb929190610fd9565b602060405180830381600087803b158015610ad557600080fd5b505af1158015610ae9573d6000803e3d6000fd5b505050506040513d601f19601f82011682018060405250810190610b0d9190610f73565b5060025482516001600160a01b03909116906338ed1739908490610b3390600190611327565b81518110610b5157634e487b7160e01b600052603260045260246000fd5b6020026020010151878430426040518663ffffffff1660e01b8152600401610b7d95949392919061120b565b600060405180830381600087803b158015610b9757600080fd5b505af1158015610bab573d6000803e3d6000fd5b505050506040513d6000823e601f3d908101601f19168201604052610bd39190810190610ee3565b5050505b60405163a9059cbb60e01b81526001600160a01b0389169063a9059cbb90610c05908c908590600401610fd9565b602060405180830381600087803b158015610c1f57600080fd5b505af1158015610c33573d6000803e3d6000fd5b505050506040513d601f19601f82011682018060405250810190610c579190610f73565b5050505050505050505050505050505050565b600082601f830112610c7a578081fd5b81356020610c8f610c8a836112ac565b61127b565b8281528181019085830183850287018401881015610cab578586fd5b855b85811015610cd2578135610cc08161136a565b84529284019290840190600101610cad565b5090979650505050505050565b600060208284031215610cf0578081fd5b8135610cfb8161136a565b9392505050565b600060208284031215610d13578081fd5b8151610cfb8161136a565b60008060008060008060c08789031215610d36578182fd5b8635610d418161136a565b9550602087013594506040870135610d588161136a565b9350606087013567ffffffffffffffff811115610d73578283fd5b610d7f89828a01610c6a565b9350506080870135915060a087013590509295509295509295565b600080600080600060808688031215610db1578081fd5b8535610dbc8161136a565b94506020860135935060408601359250606086013567ffffffffffffffff80821115610de6578283fd5b818801915088601f830112610df9578283fd5b813581811115610e07578384fd5b896020828501011115610e18578384fd5b9699959850939650602001949392505050565b600080600080600080600060c0888a031215610e45578081fd5b873567ffffffffffffffff80821115610e5c578283fd5b610e688b838c01610c6a565b985060208a0135975060408a0135965060608a0135915080821115610e8b578283fd5b818a0191508a601f830112610e9e578283fd5b813581811115610eac578384fd5b8b60208083028501011115610ebf578384fd5b989b979a50959860209190910197966080820135965060a090910135945092505050565b60006020808385031215610ef5578182fd5b825167ffffffffffffffff811115610f0b578283fd5b8301601f81018513610f1b578283fd5b8051610f29610c8a826112ac565b8181528381019083850185840285018601891015610f45578687fd5b8694505b83851015610f67578051835260019490940193918501918501610f49565b50979650505050505050565b600060208284031215610f84578081fd5b81518015158114610cfb578182fd5b600060208284031215610fa4578081fd5b5051919050565b6001600160a01b0391909116815260200190565b6001600160a01b0392831681529116602082015260400190565b6001600160a01b03929092168252602082015260400190565b6001600160a01b0388811682526020808301899052878216604084015260c0606084018190528301869052600091879160e08501845b8981101561104f57843561103b8161136a565b841682529382019390820190600101611028565b5060808601979097525050505060a0015295945050505050565b60208082526005908201526410b830b4b960d91b604082015260600190565b60408082526003908201526266656560e81b6060820152602081019190915260800190565b6040808252600f908201526e616d6f756e7420746f20726570617960881b6060820152602081019190915260800190565b604080825260069082015265185b5bdd5b9d60d21b6060820152602081019190915260800190565b604080825260079082015266616d6f756e743160c81b6060820152602081019190915260800190565b60208082526007908201526610b9b2b73232b960c91b604082015260600190565b6040808252600790820152660616d6f756e74360cc1b6060820152602081019190915260800190565b6020808252600790820152667375632064696360c81b604082015260600190565b60008582526020858184015260018060a01b0385166040840152608060608401528351806080850152825b818110156111e15785810183015185820160a0015282016111c5565b818111156111f2578360a083870101525b50601f01601f19169290920160a0019695505050505050565b600060a082018783526020878185015260a0604085015281875180845260c0860191508289019350845b8181101561125a5784516001600160a01b031683529383019391830191600101611235565b50506001600160a01b03969096166060850152505050608001529392505050565b604051601f8201601f1916810167ffffffffffffffff811182821017156112a4576112a4611354565b604052919050565b600067ffffffffffffffff8211156112c6576112c6611354565b5060209081020190565b600082198211156112e3576112e361133e565b500190565b60008261130357634e487b7160e01b81526012600452602481fd5b500490565b60008160001904831182151516156113225761132261133e565b500290565b6000828210156113395761133961133e565b500390565b634e487b7160e01b600052601160045260246000fd5b634e487b7160e01b600052604160045260246000fd5b6001600160a01b038116811461137f57600080fd5b5056fedd970dd9b5bfe707922155b058a407655cb18288b807e2216442bca8ad83d6b5a2646970667358221220d4f5fa542f6e676e31219e0035e9d5ffd9f6cba65a839ef5d18f6ebbd025a2e764736f6c63430008010033",
    "sourcePath": "/home/long/code/web3/contracts/test3.sol",
    "compiler": {
        "name": "solc",
        "version": "0.8.1+commit.df193b15"
    },
    "functionHashes": {
        "BiswapCall(address,uint256,uint256,bytes)": "5b3bc4fe",
        "testFlashSwap(address[],uint256,uint256,address[],uint256,uint256)": "5172adfd",
        "withdraw(address)": "51cff8d9"
    },
    "gasEstimates": {
        "creation": {
            "codeDepositCost": "1016000",
            "executionCost": "105185",
            "totalCost": "1121185"
        },
        "external": {
            "BiswapCall(address,uint256,uint256,bytes)": "infinite",
            "testFlashSwap(address[],uint256,uint256,address[],uint256,uint256)": "infinite",
            "withdraw(address)": "infinite"
        }
    }
}