{
    "contractName": "Flashloan",
    "abi": [
        {
            "anonymous": false,
            "inputs": [
                {
                    "indexed": false,
                    "internalType": "string",
                    "name": "message",
                    "type": "string"
                },
                {
                    "indexed": false,
                    "internalType": "uint256",
                    "name": "val",
                    "type": "uint256"
                }
            ],
            "name": "Log",
            "type": "event"
        },
        {
            "inputs": [
                {
                    "internalType": "address",
                    "name": "_sender",
                    "type": "address"
                },
                {
                    "internalType": "uint256",
                    "name": "amount0",
                    "type": "uint256"
                },
                {
                    "internalType": "uint256",
                    "name": "amount1",
                    "type": "uint256"
                },
                {
                    "internalType": "bytes",
                    "name": "_data",
                    "type": "bytes"
                }
            ],
            "name": "pancakeCall",
            "outputs": [],
            "stateMutability": "nonpayable",
            "type": "function"
        },
        {
            "inputs": [
                {
                    "internalType": "address",
                    "name": "_tokenBorrow",
                    "type": "address"
                },
                {
                    "internalType": "uint256",
                    "name": "_amount",
                    "type": "uint256"
                }
            ],
            "name": "testFlashSwap",
            "outputs": [],
            "stateMutability": "nonpayable",
            "type": "function"
        },
        {
            "stateMutability": "payable",
            "type": "receive"
        }
    ],
    "bytecode": "6080604052600080546001600160a01b031990811673ca143ce32fe78f1f7019d7d551a6402fc5350c73179091556001805482167310ed43c718714eb63d5aa57b78b54704e256024e1790556002805482167305ff2b0db69458a0750badebc4f9e13add608c7f1790556003805490911673bb4cdb9cbd36b01bd1cbaebf2de08d9173bc095c17905534801561009457600080fd5b506109f0806100a46000396000f3fe60806040526004361061002d5760003560e01c8063293ccb5014610039578063848008121461005b57610034565b3661003457005b600080fd5b34801561004557600080fd5b5061005961005436600461069e565b61007b565b005b34801561006757600080fd5b506100596100763660046106b0565b6102fd565b6000805460035460405163e6a4390560e01b81526001600160a01b039283169263e6a43905926100b392889290911690600401610761565b60206040518083038186803b1580156100cb57600080fd5b505afa1580156100df573d6000803e3d6000fd5b505050506040513d601f19601f820116820180604052508101906101039190610650565b90506001600160a01b0381166101345760405162461bcd60e51b815260040161012b90610794565b60405180910390fd5b6000816001600160a01b0316630dfe16816040518163ffffffff1660e01b815260040160206040518083038186803b15801561016f57600080fd5b505afa158015610183573d6000803e3d6000fd5b505050506040513d601f19601f820116820180604052508101906101a79190610650565b90506000826001600160a01b031663d21220a76040518163ffffffff1660e01b815260040160206040518083038186803b1580156101e457600080fd5b505afa1580156101f8573d6000803e3d6000fd5b505050506040513d601f19601f8201168201806040525081019061021c9190610650565b90506000826001600160a01b0316866001600160a01b031614610240576000610242565b845b90506000826001600160a01b0316876001600160a01b031614610266576000610268565b855b90506000878760405160200161027f92919061077b565b60408051601f198184030181529082905263022c0d9f60e01b825291506001600160a01b0387169063022c0d9f906102c19086908690309087906004016108a4565b600060405180830381600087803b1580156102db57600080fd5b505af11580156102ef573d6000803e3d6000fd5b505050505050505050505050565b6000336001600160a01b0316630dfe16816040518163ffffffff1660e01b815260040160206040518083038186803b15801561033857600080fd5b505afa15801561034c573d6000803e3d6000fd5b505050506040513d601f19601f820116820180604052508101906103709190610650565b90506000336001600160a01b031663d21220a76040518163ffffffff1660e01b815260040160206040518083038186803b1580156103ad57600080fd5b505afa1580156103c1573d6000803e3d6000fd5b505050506040513d601f19601f820116820180604052508101906103e59190610650565b6000805460405163e6a4390560e01b815292935090916001600160a01b039091169063e6a439059061041d9086908690600401610761565b60206040518083038186803b15801561043557600080fd5b505afa158015610449573d6000803e3d6000fd5b505050506040513d601f19601f8201168201806040525081019061046d9190610650565b9050336001600160a01b038216146104975760405162461bcd60e51b815260040161012b90610794565b6001600160a01b03881630146104bf5760405162461bcd60e51b815260040161012b9061085a565b6000806104ce86880188610673565b909250905060006103e56104e383600361094d565b6104ed919061092d565b6104f8906001610915565b905060006105068284610915565b905060008051602061099b833981519152836040516105259190610809565b60405180910390a160008051602061099b8339815191528b60405161054a919061087b565b60405180910390a160008051602061099b8339815191528a60405161056f9190610831565b60405180910390a160008051602061099b8339815191528260405161059491906107b3565b60405180910390a160008051602061099b833981519152816040516105b991906107d8565b60405180910390a160405163a9059cbb60e01b81526001600160a01b0385169063a9059cbb906105ef908890859060040161077b565b602060405180830381600087803b15801561060957600080fd5b505af115801561061d573d6000803e3d6000fd5b505050506040513d601f19601f820116820180604052508101906106419190610741565b50505050505050505050505050565b600060208284031215610661578081fd5b815161066c81610982565b9392505050565b60008060408385031215610685578081fd5b823561069081610982565b946020939093013593505050565b60008060408385031215610685578182fd5b6000806000806000608086880312156106c7578081fd5b85356106d281610982565b94506020860135935060408601359250606086013567ffffffffffffffff808211156106fc578283fd5b818801915088601f83011261070f578283fd5b81358181111561071d578384fd5b89602082850101111561072e578384fd5b9699959850939650602001949392505050565b600060208284031215610752578081fd5b8151801515811461066c578182fd5b6001600160a01b0392831681529116602082015260400190565b6001600160a01b03929092168252602082015260400190565b60208082526005908201526410b830b4b960d91b604082015260600190565b60408082526003908201526266656560e81b6060820152602081019190915260800190565b6040808252600f908201526e616d6f756e7420746f20726570617960881b6060820152602081019190915260800190565b604080825260069082015265185b5bdd5b9d60d21b6060820152602081019190915260800190565b604080825260079082015266616d6f756e743160c81b6060820152602081019190915260800190565b60208082526007908201526610b9b2b73232b960c91b604082015260600190565b6040808252600790820152660616d6f756e74360cc1b6060820152602081019190915260800190565b60008582526020858184015260018060a01b0385166040840152608060608401528351806080850152825b818110156108eb5785810183015185820160a0015282016108cf565b818111156108fc578360a083870101525b50601f01601f19169290920160a0019695505050505050565b600082198211156109285761092861096c565b500190565b60008261094857634e487b7160e01b81526012600452602481fd5b500490565b60008160001904831182151516156109675761096761096c565b500290565b634e487b7160e01b600052601160045260246000fd5b6001600160a01b038116811461099757600080fd5b5056fedd970dd9b5bfe707922155b058a407655cb18288b807e2216442bca8ad83d6b5a26469706673582212204b461e65cd5a2360b275977f7eee556bd39371c561ccda2fe76ebc995a78316e64736f6c63430008010033",
    "sourcePath": "/home/long/code/web3/contracts/test3.sol",
    "compiler": {
        "name": "solc",
        "version": "0.8.1+commit.df193b15"
    },
    "functionHashes": {
        "pancakeCall(address,uint256,uint256,bytes)": "84800812",
        "testFlashSwap(address,uint256)": "293ccb50"
    },
    "gasEstimates": {
        "creation": {
            "codeDepositCost": "508800",
            "executionCost": "83854",
            "totalCost": "592654"
        },
        "external": {
            "pancakeCall(address,uint256,uint256,bytes)": "infinite",
            "testFlashSwap(address,uint256)": "infinite"
        }
    }
}