{
    "contractName": "PCPrice",
    "abi": [
        {
            "inputs": [],
            "name": "amountOut",
            "outputs": [
                {
                    "internalType": "uint256",
                    "name": "",
                    "type": "uint256"
                }
            ],
            "stateMutability": "view",
            "type": "function"
        },
        {
            "inputs": [
                {
                    "internalType": "uint256",
                    "name": "_amountIn",
                    "type": "uint256"
                },
                {
                    "internalType": "address[]",
                    "name": "path",
                    "type": "address[]"
                }
            ],
            "name": "getAmountsOut",
            "outputs": [
                {
                    "internalType": "uint256[]",
                    "name": "amounts",
                    "type": "uint256[]"
                }
            ],
            "stateMutability": "nonpayable",
            "type": "function"
        },
        {
            "inputs": [
                {
                    "internalType": "uint256",
                    "name": "_amountIn",
                    "type": "uint256"
                },
                {
                    "internalType": "address",
                    "name": "_token0",
                    "type": "address"
                },
                {
                    "internalType": "address",
                    "name": "_token1",
                    "type": "address"
                },
                {
                    "internalType": "address",
                    "name": "_tokenIn",
                    "type": "address"
                }
            ],
            "name": "getOut",
            "outputs": [
                {
                    "internalType": "uint256",
                    "name": "",
                    "type": "uint256"
                }
            ],
            "stateMutability": "nonpayable",
            "type": "function"
        }
    ],
    "bytecode": "60806040819052600080546001600160a01b0319167310ed43c718714eb63d5aa57b78b54704e256024e179081905563c45a015560e01b82526001600160a01b03169063c45a01559060849060209060048186803b15801561006057600080fd5b505afa158015610074573d6000803e3d6000fd5b505050506040513d601f19601f8201168201806040525081019061009891906100ca565b600180546001600160a01b0319166001600160a01b03929092169190911790553480156100c457600080fd5b506100f8565b6000602082840312156100db578081fd5b81516001600160a01b03811681146100f1578182fd5b9392505050565b6107b1806101076000396000f3fe608060405234801561001057600080fd5b50600436106100415760003560e01c806308adc2931461004657806346ee8d001461006f578063d06ca61f14610077575b600080fd5b6100596100543660046104dd565b610097565b60405161006691906106a5565b60405180910390f35b6100596102ab565b61008a61008536600461052f565b6102b1565b604051610066919061062a565b60015460405163e6a4390560e01b815260009182916001600160a01b039091169063e6a43905906100ce9088908890600401610610565b60206040518083038186803b1580156100e657600080fd5b505afa1580156100fa573d6000803e3d6000fd5b505050506040513d601f19601f8201168201806040525081019061011e91906104a9565b6040516370a0823160e01b8152909150859085906000906001600160a01b038416906370a08231906101549087906004016105fc565b60206040518083038186803b15801561016c57600080fd5b505afa158015610180573d6000803e3d6000fd5b505050506040513d601f19601f820116820180604052508101906101a491906104c5565b90506000826001600160a01b03166370a08231866040518263ffffffff1660e01b81526004016101d491906105fc565b60206040518083038186803b1580156101ec57600080fd5b505afa158015610200573d6000803e3d6000fd5b505050506040513d601f19601f8201168201806040525081019061022491906104c5565b90506000808a6001600160a01b0316896001600160a01b03161461024957828461024c565b83835b9092509050600061025f8d6126f761047a565b9050600061026d828461047a565b90506000610287836102818761271061047a565b9061048d565b905061029381836106c6565b60028190559f9e505050505050505050505050505050565b60025481565b60606002825110156102de5760405162461bcd60e51b81526004016102d59061066e565b60405180910390fd5b815167ffffffffffffffff81111561030657634e487b7160e01b600052604160045260246000fd5b60405190808252806020026020018201604052801561032f578160200160208202803683370190505b509050828160008151811061035457634e487b7160e01b600052603260045260246000fd5b60200260200101818152505060005b600183516103719190610705565b8110156104735761042c82828151811061039b57634e487b7160e01b600052603260045260246000fd5b60200260200101518483815181106103c357634e487b7160e01b600052603260045260246000fd5b6020026020010151858460016103d991906106ae565b815181106103f757634e487b7160e01b600052603260045260246000fd5b602002602001015186858151811061041f57634e487b7160e01b600052603260045260246000fd5b6020026020010151610097565b826104388360016106ae565b8151811061045657634e487b7160e01b600052603260045260246000fd5b60209081029190910101528061046b8161071c565b915050610363565b5092915050565b600061048682846106e6565b9392505050565b600061048682846106ae565b80356104a481610763565b919050565b6000602082840312156104ba578081fd5b815161048681610763565b6000602082840312156104d6578081fd5b5051919050565b600080600080608085870312156104f2578283fd5b84359350602085013561050481610763565b9250604085013561051481610763565b9150606085013561052481610763565b939692955090935050565b60008060408385031215610541578182fd5b8235915060208084013567ffffffffffffffff80821115610560578384fd5b818601915086601f830112610573578384fd5b8135818111156105855761058561074d565b838102604051858282010181811085821117156105a4576105a461074d565b604052828152858101935084860182860187018b10156105c2578788fd5b8795505b838610156105eb576105d781610499565b8552600195909501949386019386016105c6565b508096505050505050509250929050565b6001600160a01b0391909116815260200190565b6001600160a01b0392831681529116602082015260400190565b6020808252825182820181905260009190848201906040850190845b8181101561066257835183529284019291840191600101610646565b50909695505050505050565b6020808252601c908201527f50616e63616b654c6962726172793a20494e56414c49445f5041544800000000604082015260600190565b90815260200190565b600082198211156106c1576106c1610737565b500190565b6000826106e157634e487b7160e01b81526012600452602481fd5b500490565b600081600019048311821515161561070057610700610737565b500290565b60008282101561071757610717610737565b500390565b600060001982141561073057610730610737565b5060010190565b634e487b7160e01b600052601160045260246000fd5b634e487b7160e01b600052604160045260246000fd5b6001600160a01b038116811461077857600080fd5b5056fea26469706673582212209cf078248424fa6490a021b6faeb05e9aa5e349e7db8075c3e58a97105f1381564736f6c63430008000033",
    "sourcePath": "/home/long/code/web3/contracts/test2.sol",
    "compiler": {
        "name": "solc",
        "version": "0.8.0+commit.c7dfd78e"
    },
    "functionHashes": {
        "amountOut()": "46ee8d00",
        "getAmountsOut(uint256,address[])": "d06ca61f",
        "getOut(uint256,address,address,address)": "08adc293"
    },
    "gasEstimates": {
        "creation": {
            "codeDepositCost": "393800",
            "executionCost": "infinite",
            "totalCost": "infinite"
        },
        "external": {
            "amountOut()": "1028",
            "getAmountsOut(uint256,address[])": "infinite",
            "getOut(uint256,address,address,address)": "infinite"
        }
    }
}