{
  "contractName": "AdaPrice",
  "abi": [
    {
      "inputs": [
        {
          "internalType": "address",
          "name": "token0",
          "type": "address"
        },
        {
          "internalType": "address",
          "name": "token1",
          "type": "address"
        }
      ],
      "name": "setPair",
      "outputs": [],
      "stateMutability": "nonpayable",
      "type": "function"
    },
    {
      "inputs": [],
      "name": "viewAdd",
      "outputs": [
        {
          "internalType": "address",
          "name": "",
          "type": "address"
        }
      ],
      "stateMutability": "view",
      "type": "function",
      "constant": true
    }
  ],
  "bytecode": "0x60806040527310ed43c718714eb63d5aa57b78b54704e256024e6000806101000a81548173ffffffffffffffffffffffffffffffffffffffff021916908373ffffffffffffffffffffffffffffffffffffffff16021790555060008054906101000a900473ffffffffffffffffffffffffffffffffffffffff1673ffffffffffffffffffffffffffffffffffffffff1663c45a01556040518163ffffffff1660e01b815260040160206040518083038186803b1580156100be57600080fd5b505afa1580156100d2573d6000803e3d6000fd5b505050506040513d601f19601f820116820180604052508101906100f6919061015d565b600160006101000a81548173ffffffffffffffffffffffffffffffffffffffff021916908373ffffffffffffffffffffffffffffffffffffffff16021790555034801561014257600080fd5b506101d8565b600081519050610157816101c1565b92915050565b600060208284031215610173576101726101bc565b5b600061018184828501610148565b91505092915050565b60006101958261019c565b9050919050565b600073ffffffffffffffffffffffffffffffffffffffff82169050919050565b600080fd5b6101ca8161018a565b81146101d557600080fd5b50565b6102fe806101e76000396000f3fe608060405234801561001057600080fd5b50600436106100365760003560e01c80635d6c6c9c1461003b57806395c5c5e314610059575b600080fd5b610043610075565b6040516100509190610236565b60405180910390f35b610073600480360381019061006e91906101e7565b61009f565b005b6000600260009054906101000a900473ffffffffffffffffffffffffffffffffffffffff16905090565b600160009054906101000a900473ffffffffffffffffffffffffffffffffffffffff1673ffffffffffffffffffffffffffffffffffffffff1663e6a4390583836040518363ffffffff1660e01b81526004016100fc929190610251565b60206040518083038186803b15801561011457600080fd5b505afa158015610128573d6000803e3d6000fd5b505050506040513d601f19601f8201168201806040525081019061014c91906101ba565b600260006101000a81548173ffffffffffffffffffffffffffffffffffffffff021916908373ffffffffffffffffffffffffffffffffffffffff1602179055505050565b60008135905061019f816102b1565b92915050565b6000815190506101b4816102b1565b92915050565b6000602082840312156101d0576101cf6102ac565b5b60006101de848285016101a5565b91505092915050565b600080604083850312156101fe576101fd6102ac565b5b600061020c85828601610190565b925050602061021d85828601610190565b9150509250929050565b6102308161027a565b82525050565b600060208201905061024b6000830184610227565b92915050565b60006040820190506102666000830185610227565b6102736020830184610227565b9392505050565b60006102858261028c565b9050919050565b600073ffffffffffffffffffffffffffffffffffffffff82169050919050565b600080fd5b6102ba8161027a565b81146102c557600080fd5b5056fea2646970667358221220f9e3f0bdddd38c64707e10b31e227a6005bdca3604c6011f3dfe6f58734d0cf664736f6c63430008050033",
  "immutableReferences": {},
  "source": "// SPDX-License-Identifier: MIT\npragma solidity 0.8.5;\n\nimport '@openzeppelin/contracts/token/ERC20/ERC20.sol';\n\ninterface PCS2R {\n    function factory() external pure returns (address);\n}\n\ninterface PCS2F {\n    function getPair(address tokenA, address tokenB) external view returns (address pair);\n}\n\ncontract AdaPrice {\n    PCS2R pcs2r = PCS2R(0x10ED43C718714eb63d5aA57B78B54704E256024E);\n    PCS2F pcs2f = PCS2F(pcs2r.factory());\n    address pair;\n    function setPair(address token0, address token1) public {\n        pair = pcs2f.getPair(token0, token1);\n    }\n    function viewAdd() public view returns(address) {\n        return pair;\n    }\n\n}",
  "sourcePath": "/home/long/code/web3/contracts/test2.sol",
  "compiler": {
    "name": "solc",
    "version": "0.8.5+commit.a4f2e591.Emscripten.clang"
  },
  "schemaVersion": "3.4.3",
  "updatedAt": "2021-10-21T04:26:15.771Z",
  "networkType": "ethereum",
  "devdoc": {
    "kind": "dev",
    "methods": {},
    "version": 1
  },
  "userdoc": {
    "kind": "user",
    "methods": {},
    "version": 1
  }
}