{
  "contractName": "FlashLoan",
  "abi": [
    {
      "inputs": [],
      "stateMutability": "nonpayable",
      "type": "constructor"
    },
    {
      "anonymous": false,
      "inputs": [
        {
          "indexed": false,
          "internalType": "string",
          "name": "message",
          "type": "string"
        },
        {
          "indexed": false,
          "internalType": "uint256",
          "name": "val",
          "type": "uint256"
        }
      ],
      "name": "Log",
      "type": "event"
    },
    {
      "stateMutability": "payable",
      "type": "receive"
    },
    {
      "inputs": [
        {
          "internalType": "address[]",
          "name": "_tokenBorrowPool",
          "type": "address[]"
        },
        {
          "internalType": "uint256",
          "name": "_amount",
          "type": "uint256"
        },
        {
          "internalType": "uint256",
          "name": "_from",
          "type": "uint256"
        },
        {
          "internalType": "uint256",
          "name": "_amountOutminFrom",
          "type": "uint256"
        },
        {
          "internalType": "uint256",
          "name": "_amountOutminTo",
          "type": "uint256"
        },
        {
          "internalType": "address[]",
          "name": "pathFrom",
          "type": "address[]"
        },
        {
          "internalType": "address[]",
          "name": "pathTo",
          "type": "address[]"
        }
      ],
      "name": "testFlashSwap",
      "outputs": [],
      "stateMutability": "nonpayable",
      "type": "function"
    },
    {
      "inputs": [
        {
          "internalType": "address",
          "name": "_sender",
          "type": "address"
        },
        {
          "internalType": "uint256",
          "name": "amount0",
          "type": "uint256"
        },
        {
          "internalType": "uint256",
          "name": "amount1",
          "type": "uint256"
        },
        {
          "internalType": "bytes",
          "name": "_data",
          "type": "bytes"
        }
      ],
      "name": "BiswapCall",
      "outputs": [],
      "stateMutability": "nonpayable",
      "type": "function"
    },
    {
      "inputs": [
        {
          "internalType": "address",
          "name": "_tokenWithdraw",
          "type": "address"
        }
      ],
      "name": "withdraw",
      "outputs": [],
      "stateMutability": "nonpayable",
      "type": "function"
    }
  ],
  "bytecode": "0x608060405273bb4cdb9cbd36b01bd1cbaebf2de08d9173bc095c600460006101000a81548173ffffffffffffffffffffffffffffffffffffffff021916908373ffffffffffffffffffffffffffffffffffffffff16021790555073bb4cdb9cbd36b01bd1cbaebf2de08d9173bc095c600560006101000a81548173ffffffffffffffffffffffffffffffffffffffff021916908373ffffffffffffffffffffffffffffffffffffffff1602179055503480156100ba57600080fd5b5033600660006101000a81548173ffffffffffffffffffffffffffffffffffffffff021916908373ffffffffffffffffffffffffffffffffffffffff16021790555073858e3312ed3a876947ea49d572a7c42de08af7ee600360006101000a81548173ffffffffffffffffffffffffffffffffffffffff021916908373ffffffffffffffffffffffffffffffffffffffff160217905550733a6d8ca21d1cf76f653a67577fa0d27453350dd8600260006101000a81548173ffffffffffffffffffffffffffffffffffffffff021916908373ffffffffffffffffffffffffffffffffffffffff1602179055507310ed43c718714eb63d5aa57b78b54704e256024e600160006101000a81548173ffffffffffffffffffffffffffffffffffffffff021916908373ffffffffffffffffffffffffffffffffffffffff16021790555073ca143ce32fe78f1f7019d7d551a6402fc5350c736000806101000a81548173ffffffffffffffffffffffffffffffffffffffff021916908373ffffffffffffffffffffffffffffffffffffffff16021790555061205f8061025e6000396000f3fe6080604052600436106100385760003560e01c806351cff8d9146100445780635b3bc4fe1461006d578063d881caa5146100965761003f565b3661003f57005b600080fd5b34801561005057600080fd5b5061006b60048036038101906100669190611536565b6100bf565b005b34801561007957600080fd5b50610094600480360381019061008f9190611656565b610238565b005b3480156100a257600080fd5b506100bd60048036038101906100b891906116d6565b610e84565b005b600660009054906101000a900473ffffffffffffffffffffffffffffffffffffffff1673ffffffffffffffffffffffffffffffffffffffff163373ffffffffffffffffffffffffffffffffffffffff161461011957600080fd5b60008190508073ffffffffffffffffffffffffffffffffffffffff1663a9059cbb338373ffffffffffffffffffffffffffffffffffffffff166370a08231306040518263ffffffff1660e01b815260040161017491906119b7565b60206040518083038186803b15801561018c57600080fd5b505afa1580156101a0573d6000803e3d6000fd5b505050506040513d601f19601f820116820180604052508101906101c49190611826565b6040518363ffffffff1660e01b81526004016101e19291906119fb565b602060405180830381600087803b1580156101fb57600080fd5b505af115801561020f573d6000803e3d6000fd5b505050506040513d601f19601f8201168201806040525081019061023391906117fd565b505050565b60003373ffffffffffffffffffffffffffffffffffffffff16630dfe16816040518163ffffffff1660e01b815260040160206040518083038186803b15801561028057600080fd5b505afa158015610294573d6000803e3d6000fd5b505050506040513d601f19601f820116820180604052508101906102b8919061155f565b905060003373ffffffffffffffffffffffffffffffffffffffff1663d21220a76040518163ffffffff1660e01b815260040160206040518083038186803b15801561030257600080fd5b505afa158015610316573d6000803e3d6000fd5b505050506040513d601f19601f8201168201806040525081019061033a919061155f565b90506000600360009054906101000a900473ffffffffffffffffffffffffffffffffffffffff1673ffffffffffffffffffffffffffffffffffffffff1663e6a4390584846040518363ffffffff1660e01b815260040161039b9291906119d2565b60206040518083038186803b1580156103b357600080fd5b505afa1580156103c7573d6000803e3d6000fd5b505050506040513d601f19601f820116820180604052508101906103eb919061155f565b90508073ffffffffffffffffffffffffffffffffffffffff163373ffffffffffffffffffffffffffffffffffffffff161461045b576040517f08c379a000000000000000000000000000000000000000000000000000000000815260040161045290611aa1565b60405180910390fd5b3073ffffffffffffffffffffffffffffffffffffffff168873ffffffffffffffffffffffffffffffffffffffff16146104c9576040517f08c379a00000000000000000000000000000000000000000000000000000000081526004016104c090611ac1565b60405180910390fd5b60008060008060008060008b8b8101906104e39190611588565b9650965096509650965096509650600060016103e76001896105059190611d3f565b61050f9190611d0e565b6105199190611cb8565b9050600081886105299190611cb8565b90507310ed43c718714eb63d5aa57b78b54704e256024e73ffffffffffffffffffffffffffffffffffffffff168773ffffffffffffffffffffffffffffffffffffffff1614156109ad578873ffffffffffffffffffffffffffffffffffffffff1663095ea7b3888a6040518363ffffffff1660e01b81526004016105ae9291906119fb565b602060405180830381600087803b1580156105c857600080fd5b505af11580156105dc573d6000803e3d6000fd5b505050506040513d601f19601f8201168201806040525081019061060091906117fd565b506000600160009054906101000a900473ffffffffffffffffffffffffffffffffffffffff1673ffffffffffffffffffffffffffffffffffffffff166338ed17398a898830620186a0426106549190611cb8565b6040518663ffffffff1660e01b8152600401610674959493929190611b7b565b600060405180830381600087803b15801561068e57600080fd5b505af11580156106a2573d6000803e3d6000fd5b505050506040513d6000823e3d601f19601f820116820180604052508101906106cb91906117bc565b905084600186516106dc9190611d99565b81518110610713577f4e487b7100000000000000000000000000000000000000000000000000000000600052603260045260246000fd5b602002602001015173ffffffffffffffffffffffffffffffffffffffff1663095ea7b3733a6d8ca21d1cf76f653a67577fa0d27453350dd8836001855161075a9190611d99565b81518110610791577f4e487b7100000000000000000000000000000000000000000000000000000000600052603260045260246000fd5b60200260200101516040518363ffffffff1660e01b81526004016107b69291906119fb565b602060405180830381600087803b1580156107d057600080fd5b505af11580156107e4573d6000803e3d6000fd5b505050506040513d601f19601f8201168201806040525081019061080891906117fd565b506000600260009054906101000a900473ffffffffffffffffffffffffffffffffffffffff1673ffffffffffffffffffffffffffffffffffffffff166338ed173983600185516108589190611d99565b8151811061088f577f4e487b7100000000000000000000000000000000000000000000000000000000600052603260045260246000fd5b6020026020010151898830620186a0426108a99190611cb8565b6040518663ffffffff1660e01b81526004016108c9959493929190611b7b565b600060405180830381600087803b1580156108e357600080fd5b505af11580156108f7573d6000803e3d6000fd5b505050506040513d6000823e3d601f19601f8201168201806040525081019061092091906117bc565b90507fdd970dd9b5bfe707922155b058a407655cb18288b807e2216442bca8ad83d6b581600183516109529190611d99565b81518110610989577f4e487b7100000000000000000000000000000000000000000000000000000000600052603260045260246000fd5b602002602001015160405161099e9190611b01565b60405180910390a15050610de3565b8873ffffffffffffffffffffffffffffffffffffffff1663095ea7b3888a6040518363ffffffff1660e01b81526004016109e89291906119fb565b602060405180830381600087803b158015610a0257600080fd5b505af1158015610a16573d6000803e3d6000fd5b505050506040513d601f19601f82011682018060405250810190610a3a91906117fd565b506000600260009054906101000a900473ffffffffffffffffffffffffffffffffffffffff1673ffffffffffffffffffffffffffffffffffffffff166338ed17398a898830620186a042610a8e9190611cb8565b6040518663ffffffff1660e01b8152600401610aae959493929190611b7b565b600060405180830381600087803b158015610ac857600080fd5b505af1158015610adc573d6000803e3d6000fd5b505050506040513d6000823e3d601f19601f82011682018060405250810190610b0591906117bc565b90508460018651610b169190611d99565b81518110610b4d577f4e487b7100000000000000000000000000000000000000000000000000000000600052603260045260246000fd5b602002602001015173ffffffffffffffffffffffffffffffffffffffff1663095ea7b37310ed43c718714eb63d5aa57b78b54704e256024e8360018551610b949190611d99565b81518110610bcb577f4e487b7100000000000000000000000000000000000000000000000000000000600052603260045260246000fd5b60200260200101516040518363ffffffff1660e01b8152600401610bf09291906119fb565b602060405180830381600087803b158015610c0a57600080fd5b505af1158015610c1e573d6000803e3d6000fd5b505050506040513d601f19601f82011682018060405250810190610c4291906117fd565b506000600160009054906101000a900473ffffffffffffffffffffffffffffffffffffffff1673ffffffffffffffffffffffffffffffffffffffff166338ed17398360018551610c929190611d99565b81518110610cc9577f4e487b7100000000000000000000000000000000000000000000000000000000600052603260045260246000fd5b6020026020010151898830620186a042610ce39190611cb8565b6040518663ffffffff1660e01b8152600401610d03959493929190611b7b565b600060405180830381600087803b158015610d1d57600080fd5b505af1158015610d31573d6000803e3d6000fd5b505050506040513d6000823e3d601f19601f82011682018060405250810190610d5a91906117bc565b90507fdd970dd9b5bfe707922155b058a407655cb18288b807e2216442bca8ad83d6b58160018351610d8c9190611d99565b81518110610dc3577f4e487b7100000000000000000000000000000000000000000000000000000000600052603260045260246000fd5b6020026020010151604051610dd89190611b01565b60405180910390a150505b8873ffffffffffffffffffffffffffffffffffffffff1663a9059cbb8b836040518363ffffffff1660e01b8152600401610e1e9291906119fb565b602060405180830381600087803b158015610e3857600080fd5b505af1158015610e4c573d6000803e3d6000fd5b505050506040513d601f19601f82011682018060405250810190610e7091906117fd565b505050505050505050505050505050505050565b600660009054906101000a900473ffffffffffffffffffffffffffffffffffffffff1673ffffffffffffffffffffffffffffffffffffffff163373ffffffffffffffffffffffffffffffffffffffff1614610ede57600080fd5b6002875114610f22576040517f08c379a0000000000000000000000000000000000000000000000000000000008152600401610f1990611ae1565b60405180910390fd5b600087600081518110610f5e577f4e487b7100000000000000000000000000000000000000000000000000000000600052603260045260246000fd5b60200260200101519050600088600181518110610fa4577f4e487b7100000000000000000000000000000000000000000000000000000000600052603260045260246000fd5b602002602001015190506000600360009054906101000a900473ffffffffffffffffffffffffffffffffffffffff1673ffffffffffffffffffffffffffffffffffffffff1663e6a4390584846040518363ffffffff1660e01b815260040161100d9291906119d2565b60206040518083038186803b15801561102557600080fd5b505afa158015611039573d6000803e3d6000fd5b505050506040513d601f19601f8201168201806040525081019061105d919061155f565b9050600073ffffffffffffffffffffffffffffffffffffffff168173ffffffffffffffffffffffffffffffffffffffff1614156110cf576040517f08c379a00000000000000000000000000000000000000000000000000000000081526004016110c690611aa1565b60405180910390fd5b6000600189146110f357733a6d8ca21d1cf76f653a67577fa0d27453350dd8611109565b7310ed43c718714eb63d5aa57b78b54704e256024e5b905060008273ffffffffffffffffffffffffffffffffffffffff16630dfe16816040518163ffffffff1660e01b815260040160206040518083038186803b15801561115357600080fd5b505afa158015611167573d6000803e3d6000fd5b505050506040513d601f19601f8201168201806040525081019061118b919061155f565b905060008373ffffffffffffffffffffffffffffffffffffffff1663d21220a76040518163ffffffff1660e01b815260040160206040518083038186803b1580156111d557600080fd5b505afa1580156111e9573d6000803e3d6000fd5b505050506040513d601f19601f8201168201806040525081019061120d919061155f565b905060008273ffffffffffffffffffffffffffffffffffffffff168773ffffffffffffffffffffffffffffffffffffffff161461124b57600061124d565b8c5b905060008273ffffffffffffffffffffffffffffffffffffffff168873ffffffffffffffffffffffffffffffffffffffff161461128b57600061128d565b8d5b90506000888f878f8f8f8f6040516020016112ae9796959493929190611a24565b60405160208183030381529060405290508673ffffffffffffffffffffffffffffffffffffffff1663022c0d9f848430856040518563ffffffff1660e01b81526004016112fe9493929190611b2f565b600060405180830381600087803b15801561131857600080fd5b505af115801561132c573d6000803e3d6000fd5b5050505050505050505050505050505050505050565b600061135561135084611bfa565b611bd5565b9050808382526020820190508285602086028201111561137457600080fd5b60005b858110156113a4578161138a888261141a565b845260208401935060208301925050600181019050611377565b5050509392505050565b60006113c16113bc84611c26565b611bd5565b905080838252602082019050828560208602820111156113e057600080fd5b60005b8581101561141057816113f68882611521565b8452602084019350602083019250506001810190506113e3565b5050509392505050565b60008135905061142981611fcd565b92915050565b60008151905061143e81611fcd565b92915050565b60008135905061145381611fe4565b92915050565b600082601f83011261146a57600080fd5b813561147a848260208601611342565b91505092915050565b600082601f83011261149457600080fd5b81516114a48482602086016113ae565b91505092915050565b6000815190506114bc81611ffb565b92915050565b60008083601f8401126114d457600080fd5b8235905067ffffffffffffffff8111156114ed57600080fd5b60208301915083600182028301111561150557600080fd5b9250929050565b60008135905061151b81612012565b92915050565b60008151905061153081612012565b92915050565b60006020828403121561154857600080fd5b60006115568482850161141a565b91505092915050565b60006020828403121561157157600080fd5b600061157f8482850161142f565b91505092915050565b600080600080600080600060e0888a0312156115a357600080fd5b60006115b18a828b01611444565b97505060206115c28a828b0161150c565b96505060406115d38a828b01611444565b95505060606115e48a828b0161150c565b94505060806115f58a828b0161150c565b93505060a088013567ffffffffffffffff81111561161257600080fd5b61161e8a828b01611459565b92505060c088013567ffffffffffffffff81111561163b57600080fd5b6116478a828b01611459565b91505092959891949750929550565b60008060008060006080868803121561166e57600080fd5b600061167c8882890161141a565b955050602061168d8882890161150c565b945050604061169e8882890161150c565b935050606086013567ffffffffffffffff8111156116bb57600080fd5b6116c7888289016114c2565b92509250509295509295909350565b600080600080600080600060e0888a0312156116f157600080fd5b600088013567ffffffffffffffff81111561170b57600080fd5b6117178a828b01611459565b97505060206117288a828b0161150c565b96505060406117398a828b0161150c565b955050606061174a8a828b0161150c565b945050608061175b8a828b0161150c565b93505060a088013567ffffffffffffffff81111561177857600080fd5b6117848a828b01611459565b92505060c088013567ffffffffffffffff8111156117a157600080fd5b6117ad8a828b01611459565b91505092959891949750929550565b6000602082840312156117ce57600080fd5b600082015167ffffffffffffffff8111156117e857600080fd5b6117f484828501611483565b91505092915050565b60006020828403121561180f57600080fd5b600061181d848285016114ad565b91505092915050565b60006020828403121561183857600080fd5b600061184684828501611521565b91505092915050565b600061185b8383611867565b60208301905092915050565b61187081611dcd565b82525050565b61187f81611dcd565b82525050565b600061189082611c62565b61189a8185611c85565b93506118a583611c52565b8060005b838110156118d65781516118bd888261184f565b97506118c883611c78565b9250506001810190506118a9565b5085935050505092915050565b60006118ee82611c6d565b6118f88185611c96565b9350611908818560208601611e27565b61191181611f18565b840191505092915050565b6000611929600583611ca7565b915061193482611f29565b602082019050919050565b600061194c600783611ca7565b915061195782611f52565b602082019050919050565b600061196f600783611ca7565b915061197a82611f7b565b602082019050919050565b6000611992600a83611ca7565b915061199d82611fa4565b602082019050919050565b6119b181611e1d565b82525050565b60006020820190506119cc6000830184611876565b92915050565b60006040820190506119e76000830185611876565b6119f46020830184611876565b9392505050565b6000604082019050611a106000830185611876565b611a1d60208301846119a8565b9392505050565b600060e082019050611a39600083018a611876565b611a4660208301896119a8565b611a536040830188611876565b611a6060608301876119a8565b611a6d60808301866119a8565b81810360a0830152611a7f8185611885565b905081810360c0830152611a938184611885565b905098975050505050505050565b60006020820190508181036000830152611aba8161191c565b9050919050565b60006020820190508181036000830152611ada8161193f565b9050919050565b60006020820190508181036000830152611afa81611962565b9050919050565b60006040820190508181036000830152611b1a81611985565b9050611b2960208301846119a8565b92915050565b6000608082019050611b4460008301876119a8565b611b5160208301866119a8565b611b5e6040830185611876565b8181036060830152611b7081846118e3565b905095945050505050565b600060a082019050611b9060008301886119a8565b611b9d60208301876119a8565b8181036040830152611baf8186611885565b9050611bbe6060830185611876565b611bcb60808301846119a8565b9695505050505050565b6000611bdf611bf0565b9050611beb8282611e5a565b919050565b6000604051905090565b600067ffffffffffffffff821115611c1557611c14611ee9565b5b602082029050602081019050919050565b600067ffffffffffffffff821115611c4157611c40611ee9565b5b602082029050602081019050919050565b6000819050602082019050919050565b600081519050919050565b600081519050919050565b6000602082019050919050565b600082825260208201905092915050565b600082825260208201905092915050565b600082825260208201905092915050565b6000611cc382611e1d565b9150611cce83611e1d565b9250827fffffffffffffffffffffffffffffffffffffffffffffffffffffffffffffffff03821115611d0357611d02611e8b565b5b828201905092915050565b6000611d1982611e1d565b9150611d2483611e1d565b925082611d3457611d33611eba565b5b828204905092915050565b6000611d4a82611e1d565b9150611d5583611e1d565b9250817fffffffffffffffffffffffffffffffffffffffffffffffffffffffffffffffff0483118215151615611d8e57611d8d611e8b565b5b828202905092915050565b6000611da482611e1d565b9150611daf83611e1d565b925082821015611dc257611dc1611e8b565b5b828203905092915050565b6000611dd882611dfd565b9050919050565b6000611dea82611dfd565b9050919050565b60008115159050919050565b600073ffffffffffffffffffffffffffffffffffffffff82169050919050565b6000819050919050565b60005b83811015611e45578082015181840152602081019050611e2a565b83811115611e54576000848401525b50505050565b611e6382611f18565b810181811067ffffffffffffffff82111715611e8257611e81611ee9565b5b80604052505050565b7f4e487b7100000000000000000000000000000000000000000000000000000000600052601160045260246000fd5b7f4e487b7100000000000000000000000000000000000000000000000000000000600052601260045260246000fd5b7f4e487b7100000000000000000000000000000000000000000000000000000000600052604160045260246000fd5b6000601f19601f8301169050919050565b7f2170616972000000000000000000000000000000000000000000000000000000600082015250565b7f2173656e64657200000000000000000000000000000000000000000000000000600082015250565b7f7375632064696300000000000000000000000000000000000000000000000000600082015250565b7f616d6f7574732d6f757400000000000000000000000000000000000000000000600082015250565b611fd681611dcd565b8114611fe157600080fd5b50565b611fed81611ddf565b8114611ff857600080fd5b50565b61200481611df1565b811461200f57600080fd5b50565b61201b81611e1d565b811461202657600080fd5b5056fea26469706673582212204cfb320b00fe5429c569df344e126b26a671b6be07e0a05006002d0e5c9f460f64736f6c63430008010033",
  "immutableReferences": {},
  "source": "pragma solidity 0.8.1;\n\nimport '@openzeppelin/contracts/token/ERC20/IERC20.sol';\n\nimport './interfaces/IPancakeFactory.sol';\nimport './interfaces/IPancakeRouter.sol';\nimport './interfaces/IPancakePair.sol';\n\nimport './interfaces/IBiswapCallee.sol';\nimport './interfaces/IBiswapFactory.sol';\nimport './interfaces/IBiswapRouter02.sol';\nimport './interfaces/IBiswapPair.sol';\n\ncontract FlashLoan is IBiswapCallee {\n\n    IPancakeFactory factory;\n    IPancakeRouter02 router2;\n\n    IBiswapRouter02 BiswapRouter;\n    IBiswapFactory BiswapFactory;\n\n    address WBNBAddress = 0xbb4CdB9CBd36B01bD1cBaEBF2De08d9173bc095c;\n    IERC20 WBNB = IERC20(0xbb4CdB9CBd36B01bD1cBaEBF2De08d9173bc095c);\n\n    address owner;\n\n    receive() external payable {}\n    \n    constructor (){\n        owner = msg.sender;\n        BiswapFactory = IBiswapFactory(0x858E3312ed3A876947EA49d572A7C42DE08af7EE);\n        BiswapRouter = IBiswapRouter02(0x3a6d8cA21D1CF76F653A67577FA0D27453350dD8);\n\n        router2 = IPancakeRouter02(0x10ED43C718714eb63d5aA57B78B54704E256024E);\n        factory = IPancakeFactory(0xcA143Ce32Fe78f1f7019d7d551a6402fC5350c73);\n    }\n\n    modifier onlyOwner {\n        require(msg.sender == owner);\n        _;\n    }\n\n    event Log(string message, uint val);\n\n    function testFlashSwap(address[] memory _tokenBorrowPool,uint _amount, uint _from,uint _amountOutminFrom, uint _amountOutminTo, address[] memory pathFrom, address[] memory pathTo) external onlyOwner {\n        require(_tokenBorrowPool.length == 2,'suc dic');      \n        address _tokenBorrow = _tokenBorrowPool[0];\n        address _toToken = _tokenBorrowPool[1];\n\n        address pair = BiswapFactory.getPair(_tokenBorrow, _toToken);\n        require(pair != address(0), \"!pair\");\n\n        address from = _from == 1 ? 0x10ED43C718714eb63d5aA57B78B54704E256024E: 0x3a6d8cA21D1CF76F653A67577FA0D27453350dD8 ;\n        \n        address token0 = IBiswapPair(pair).token0();\n        address token1 = IBiswapPair(pair).token1();\n\n        uint amount0Out = _tokenBorrow == token0 ? _amount : 0;\n        uint amount1Out = _tokenBorrow == token1 ? _amount : 0;\n\n        // need to pass some data to trigger PancakeCall\n        bytes memory data = abi.encode(_tokenBorrow, _amount, from, _amountOutminFrom, _amountOutminTo, pathFrom, pathTo );\n\n        IBiswapPair(pair).swap(amount0Out, amount1Out, address(this), data);\n    }\n\n    function BiswapCall(address _sender, uint amount0, uint amount1, bytes calldata _data) external override {\n        address token0 = IBiswapPair(msg.sender).token0();\n        address token1 = IBiswapPair(msg.sender).token1();\n        address pair = BiswapFactory.getPair(token0, token1);\n        require(msg.sender == pair, \"!pair\");\n        require(_sender == address(this), \"!sender\");\n        (address tokenBorrow, uint amount, address from, uint amountOutminFrom ,uint amountOutminTo,address[] memory pathFrom, address[] memory pathTo ) = abi.decode(_data, (address, uint, address, uint,uint, address[], address[]));\n        // about 0.1%\n        uint fee = ((amount * 1) / 999) + 1;\n        uint amountToRepay = amount + fee;\n\n\n        // do stuff here\n\n        if ( from == 0x10ED43C718714eb63d5aA57B78B54704E256024E){\n            IERC20(tokenBorrow).approve(from, amount);\n            uint[] memory amounts = router2.swapExactTokensForTokens(amount,amountOutminFrom,pathFrom,address(this),block.timestamp+100000);\n            IERC20(pathFrom[pathFrom.length-1]).approve(0x3a6d8cA21D1CF76F653A67577FA0D27453350dD8, amounts[amounts.length-1]);\n            uint[] memory amounts2 = BiswapRouter.swapExactTokensForTokens(amounts[amounts.length-1], amountOutminTo, pathTo, address(this), block.timestamp+100000);\n            emit Log('amouts-out',amounts2[amounts2.length-1]);\n        } else {\n            IERC20(tokenBorrow).approve(from, amount);\n            uint[] memory amounts = BiswapRouter.swapExactTokensForTokens(amount, amountOutminFrom, pathFrom, address(this), block.timestamp+100000);\n            IERC20(pathFrom[pathFrom.length-1]).approve(0x10ED43C718714eb63d5aA57B78B54704E256024E, amounts[amounts.length-1]);\n            uint[] memory amounts2 = router2.swapExactTokensForTokens(amounts[amounts.length-1], amountOutminTo,pathTo,address(this),block.timestamp+100000);\n            emit Log('amouts-out',amounts2[amounts2.length-1]);\n        }\n        \n        IERC20(tokenBorrow).transfer(pair, amountToRepay);\n    }\n\n    function withdraw(address _tokenWithdraw) public onlyOwner {\n        IERC20 token = IERC20(_tokenWithdraw);\n        token.transfer(msg.sender, token.balanceOf(address(this)));\n    }\n}",
  "sourcePath": "/home/long/code/web3/contracts/test3.sol",
  "compiler": {
    "name": "solc",
    "version": "0.8.1+commit.df193b15.Emscripten.clang"
  },
  "schemaVersion": "3.4.3",
  "updatedAt": "2021-10-25T23:56:38.994Z",
  "devdoc": {
    "kind": "dev",
    "methods": {},
    "version": 1
  },
  "userdoc": {
    "kind": "user",
    "methods": {},
    "version": 1
  }
}