{
  "contractName": "PCPrice",
  "abi": [
    {
      "inputs": [],
      "name": "amountOut",
      "outputs": [
        {
          "internalType": "uint256",
          "name": "",
          "type": "uint256"
        }
      ],
      "stateMutability": "view",
      "type": "function",
      "constant": true
    },
    {
      "inputs": [
        {
          "internalType": "uint256",
          "name": "_amountIn",
          "type": "uint256"
        },
        {
          "internalType": "address",
          "name": "_token0",
          "type": "address"
        },
        {
          "internalType": "address",
          "name": "_token1",
          "type": "address"
        },
        {
          "internalType": "address",
          "name": "_tokenIn",
          "type": "address"
        }
      ],
      "name": "getOut",
      "outputs": [
        {
          "internalType": "uint256",
          "name": "",
          "type": "uint256"
        }
      ],
      "stateMutability": "nonpayable",
      "type": "function"
    },
    {
      "inputs": [
        {
          "internalType": "uint256",
          "name": "_amountIn",
          "type": "uint256"
        },
        {
          "internalType": "address[]",
          "name": "path",
          "type": "address[]"
        }
      ],
      "name": "getAmountsOut",
      "outputs": [
        {
          "internalType": "uint256[]",
          "name": "amounts",
          "type": "uint256[]"
        }
      ],
      "stateMutability": "nonpayable",
      "type": "function"
    }
  ],
  "bytecode": "0x60806040527310ed43c718714eb63d5aa57b78b54704e256024e6000806101000a81548173ffffffffffffffffffffffffffffffffffffffff021916908373ffffffffffffffffffffffffffffffffffffffff16021790555060008054906101000a900473ffffffffffffffffffffffffffffffffffffffff1673ffffffffffffffffffffffffffffffffffffffff1663c45a01556040518163ffffffff1660e01b815260040160206040518083038186803b1580156100be57600080fd5b505afa1580156100d2573d6000803e3d6000fd5b505050506040513d601f19601f820116820180604052508101906100f6919061015d565b600160006101000a81548173ffffffffffffffffffffffffffffffffffffffff021916908373ffffffffffffffffffffffffffffffffffffffff16021790555034801561014257600080fd5b506101cf565b600081519050610157816101b8565b92915050565b60006020828403121561016f57600080fd5b600061017d84828501610148565b91505092915050565b600061019182610198565b9050919050565b600073ffffffffffffffffffffffffffffffffffffffff82169050919050565b6101c181610186565b81146101cc57600080fd5b50565b610cd8806101de6000396000f3fe608060405234801561001057600080fd5b50600436106100415760003560e01c806308adc2931461004657806346ee8d0014610076578063d06ca61f14610094575b600080fd5b610060600480360381019061005b919061076b565b6100c4565b60405161006d919061098b565b60405180910390f35b61007e610362565b60405161008b919061098b565b60405180910390f35b6100ae60048036038101906100a991906107ce565b610368565b6040516100bb9190610949565b60405180910390f35b600080600160009054906101000a900473ffffffffffffffffffffffffffffffffffffffff1673ffffffffffffffffffffffffffffffffffffffff1663e6a4390586866040518363ffffffff1660e01b8152600401610124929190610920565b60206040518083038186803b15801561013c57600080fd5b505afa158015610150573d6000803e3d6000fd5b505050506040513d601f19601f820116820180604052508101906101749190610719565b90506000859050600085905060008273ffffffffffffffffffffffffffffffffffffffff166370a08231856040518263ffffffff1660e01b81526004016101bb9190610905565b60206040518083038186803b1580156101d357600080fd5b505afa1580156101e7573d6000803e3d6000fd5b505050506040513d601f19601f8201168201806040525081019061020b9190610742565b905060008273ffffffffffffffffffffffffffffffffffffffff166370a08231866040518263ffffffff1660e01b81526004016102489190610905565b60206040518083038186803b15801561026057600080fd5b505afa158015610274573d6000803e3d6000fd5b505050506040513d601f19601f820116820180604052508101906102989190610742565b90506000808a73ffffffffffffffffffffffffffffffffffffffff168973ffffffffffffffffffffffffffffffffffffffff16146102d75782846102da565b83835b9150915060006102f56126f78e61060390919063ffffffff16565b9050600061030c838361060390919063ffffffff16565b90506000610337836103296127108861060390919063ffffffff16565b61061990919063ffffffff16565b905080826103459190610aa3565b6002819055506002549a5050505050505050505050949350505050565b60025481565b60606002825110156103af576040517f08c379a00000000000000000000000000000000000000000000000000000000081526004016103a69061096b565b60405180910390fd5b815167ffffffffffffffff8111156103f0577f4e487b7100000000000000000000000000000000000000000000000000000000600052604160045260246000fd5b60405190808252806020026020018201604052801561041e5781602001602082028036833780820191505090505b509050828160008151811061045c577f4e487b7100000000000000000000000000000000000000000000000000000000600052603260045260246000fd5b60200260200101818152505060005b600183516104799190610b2e565b8110156105fc576105988282815181106104bc577f4e487b7100000000000000000000000000000000000000000000000000000000600052603260045260246000fd5b60200260200101518483815181106104fd577f4e487b7100000000000000000000000000000000000000000000000000000000600052603260045260246000fd5b6020026020010151856001856105139190610a4d565b8151811061054a577f4e487b7100000000000000000000000000000000000000000000000000000000600052603260045260246000fd5b602002602001015186858151811061058b577f4e487b7100000000000000000000000000000000000000000000000000000000600052603260045260246000fd5b60200260200101516100c4565b826001836105a69190610a4d565b815181106105dd577f4e487b7100000000000000000000000000000000000000000000000000000000600052603260045260246000fd5b60200260200101818152505080806105f490610b9e565b91505061046b565b5092915050565b600081836106119190610ad4565b905092915050565b600081836106279190610a4d565b905092915050565b600061064261063d846109d7565b6109a6565b9050808382526020820190508285602086028201111561066157600080fd5b60005b858110156106915781610677888261069b565b845260208401935060208301925050600181019050610664565b5050509392505050565b6000813590506106aa81610c74565b92915050565b6000815190506106bf81610c74565b92915050565b600082601f8301126106d657600080fd5b81356106e684826020860161062f565b91505092915050565b6000813590506106fe81610c8b565b92915050565b60008151905061071381610c8b565b92915050565b60006020828403121561072b57600080fd5b6000610739848285016106b0565b91505092915050565b60006020828403121561075457600080fd5b600061076284828501610704565b91505092915050565b6000806000806080858703121561078157600080fd5b600061078f878288016106ef565b94505060206107a08782880161069b565b93505060406107b18782880161069b565b92505060606107c28782880161069b565b91505092959194509250565b600080604083850312156107e157600080fd5b60006107ef858286016106ef565b925050602083013567ffffffffffffffff81111561080c57600080fd5b610818858286016106c5565b9150509250929050565b600061082e83836108e7565b60208301905092915050565b61084381610b62565b82525050565b600061085482610a13565b61085e8185610a2b565b935061086983610a03565b8060005b8381101561089a5781516108818882610822565b975061088c83610a1e565b92505060018101905061086d565b5085935050505092915050565b60006108b4601c83610a3c565b91507f50616e63616b654c6962726172793a20494e56414c49445f50415448000000006000830152602082019050919050565b6108f081610b94565b82525050565b6108ff81610b94565b82525050565b600060208201905061091a600083018461083a565b92915050565b6000604082019050610935600083018561083a565b610942602083018461083a565b9392505050565b600060208201905081810360008301526109638184610849565b905092915050565b60006020820190508181036000830152610984816108a7565b9050919050565b60006020820190506109a060008301846108f6565b92915050565b6000604051905081810181811067ffffffffffffffff821117156109cd576109cc610c45565b5b8060405250919050565b600067ffffffffffffffff8211156109f2576109f1610c45565b5b602082029050602081019050919050565b6000819050602082019050919050565b600081519050919050565b6000602082019050919050565b600082825260208201905092915050565b600082825260208201905092915050565b6000610a5882610b94565b9150610a6383610b94565b9250827fffffffffffffffffffffffffffffffffffffffffffffffffffffffffffffffff03821115610a9857610a97610be7565b5b828201905092915050565b6000610aae82610b94565b9150610ab983610b94565b925082610ac957610ac8610c16565b5b828204905092915050565b6000610adf82610b94565b9150610aea83610b94565b9250817fffffffffffffffffffffffffffffffffffffffffffffffffffffffffffffffff0483118215151615610b2357610b22610be7565b5b828202905092915050565b6000610b3982610b94565b9150610b4483610b94565b925082821015610b5757610b56610be7565b5b828203905092915050565b6000610b6d82610b74565b9050919050565b600073ffffffffffffffffffffffffffffffffffffffff82169050919050565b6000819050919050565b6000610ba982610b94565b91507fffffffffffffffffffffffffffffffffffffffffffffffffffffffffffffffff821415610bdc57610bdb610be7565b5b600182019050919050565b7f4e487b7100000000000000000000000000000000000000000000000000000000600052601160045260246000fd5b7f4e487b7100000000000000000000000000000000000000000000000000000000600052601260045260246000fd5b7f4e487b7100000000000000000000000000000000000000000000000000000000600052604160045260246000fd5b610c7d81610b62565b8114610c8857600080fd5b50565b610c9481610b94565b8114610c9f57600080fd5b5056fea26469706673582212207b72442dd55477550a539dff4fecff6f967ee469df218d83a71167c076fdb5a264736f6c63430008000033",
  "immutableReferences": {},
  "source": "// SPDX-License-Identifier: MIT\npragma solidity 0.8.0;\n\nimport '@openzeppelin/contracts/token/ERC20/ERC20.sol';\nimport '@openzeppelin/contracts/utils/math/SafeMath.sol';\n\ninterface PCS2R {\n    function factory() external pure returns (address);\n}\n\ninterface PCS2F {\n    function getPair(address tokenA, address tokenB) external view returns (address pair);\n}\n \n interface IPancakePair {\n    event Approval(address indexed owner, address indexed spender, uint value);\n    event Transfer(address indexed from, address indexed to, uint value);\n\n    function name() external pure returns (string memory);\n    function symbol() external pure returns (string memory);\n    function decimals() external pure returns (uint8);\n    function totalSupply() external view returns (uint);\n    function balanceOf(address owner) external view returns (uint);\n    function allowance(address owner, address spender) external view returns (uint);\n\n    function approve(address spender, uint value) external returns (bool);\n    function transfer(address to, uint value) external returns (bool);\n    function transferFrom(address from, address to, uint value) external returns (bool);\n\n    function DOMAIN_SEPARATOR() external view returns (bytes32);\n    function PERMIT_TYPEHASH() external pure returns (bytes32);\n    function nonces(address owner) external view returns (uint);\n\n    function permit(address owner, address spender, uint value, uint deadline, uint8 v, bytes32 r, bytes32 s) external;\n\n    event Mint(address indexed sender, uint amount0, uint amount1);\n    event Burn(address indexed sender, uint amount0, uint amount1, address indexed to);\n    event Swap(\n        address indexed sender,\n        uint amount0In,\n        uint amount1In,\n        uint amount0Out,\n        uint amount1Out,\n        address indexed to\n    );\n    event Sync(uint112 reserve0, uint112 reserve1);\n\n    function MINIMUM_LIQUIDITY() external pure returns (uint);\n    function factory() external view returns (address);\n    function token0() external view returns (address);\n    function token1() external view returns (address);\n    function getReserves() external view returns (uint112 reserve0, uint112 reserve1, uint32 blockTimestampLast);\n    function price0CumulativeLast() external view returns (uint);\n    function price1CumulativeLast() external view returns (uint);\n    function kLast() external view returns (uint);\n\n    function mint(address to) external returns (uint liquidity);\n    function burn(address to) external returns (uint amount0, uint amount1);\n    function swap(uint amount0Out, uint amount1Out, address to, bytes calldata data) external;\n    function skim(address to) external;\n    function sync() external;\n\n    function initialize(address, address) external;\n}\n\n\ncontract PCPrice {\n    using SafeMath for uint;\n    PCS2R pcs2r = PCS2R(0x10ED43C718714eb63d5aA57B78B54704E256024E);\n    PCS2F pcs2f = PCS2F(pcs2r.factory());\n    uint public amountOut;\n\n    function getOut(uint _amountIn, address _token0, address _token1, address _tokenIn) public returns(uint){\n        address _pairAddress = pcs2f.getPair(_token0, _token1);\n        ERC20 _token0_ = ERC20(_token0);\n        ERC20 _token1_ = ERC20(_token1);\n        uint _reserve0 = _token0_.balanceOf(_pairAddress);\n        uint _reserve1 = _token1_.balanceOf(_pairAddress);\n        (uint _reserveIn, uint _reserveOut) = _tokenIn == _token0 ? (_reserve0,_reserve1) : (_reserve1,_reserve0);\n        uint amountInWithFee = _amountIn.mul(9975);\n        uint numerator = amountInWithFee.mul(_reserveOut);\n        uint denomerator = _reserveIn.mul(10000).add(amountInWithFee);\n        amountOut = numerator/denomerator;\n        return amountOut;\n    }\n\n    function getAmountsOut(uint _amountIn, address[] memory path) public returns (uint[] memory amounts) {\n        require(path.length >= 2, 'PancakeLibrary: INVALID_PATH');\n        amounts = new uint[](path.length);\n        amounts[0] = _amountIn;\n        for (uint i; i < path.length - 1; i++) {\n            amounts[i + 1] = getOut(amounts[i],path[i],path[i+1], path[i]);\n        }\n        return amounts;\n    }\n\n}",
  "sourcePath": "/home/long/code/web3/contracts/test2.sol",
  "compiler": {
    "name": "solc",
    "version": "0.8.0+commit.c7dfd78e.Emscripten.clang"
  },
  "schemaVersion": "3.4.3",
  "updatedAt": "2021-10-21T16:37:51.926Z",
  "networkType": "ethereum",
  "devdoc": {
    "kind": "dev",
    "methods": {},
    "version": 1
  },
  "userdoc": {
    "kind": "user",
    "methods": {},
    "version": 1
  }
}